{
  "_format": "hh-sol-artifact-1",
  "contractName": "BLTM",
  "sourceName": "contracts/BLTM.sol",
  "abi": [
    {
      "inputs": [
        {
          "internalType": "address",
          "name": "defaultAdmin",
          "type": "address"
        },
        {
          "internalType": "address",
          "name": "pauser",
          "type": "address"
        },
        {
          "internalType": "address",
          "name": "minter",
          "type": "address"
        }
      ],
      "stateMutability": "nonpayable",
      "type": "constructor"
    },
    {
      "inputs": [],
      "name": "AccessControlBadConfirmation",
      "type": "error"
    },
    {
      "inputs": [
        {
          "internalType": "address",
          "name": "account",
          "type": "address"
        },
        {
          "internalType": "bytes32",
          "name": "neededRole",
          "type": "bytes32"
        }
      ],
      "name": "AccessControlUnauthorizedAccount",
      "type": "error"
    },
    {
      "inputs": [
        {
          "internalType": "address",
          "name": "spender",
          "type": "address"
        },
        {
          "internalType": "uint256",
          "name": "allowance",
          "type": "uint256"
        },
        {
          "internalType": "uint256",
          "name": "needed",
          "type": "uint256"
        }
      ],
      "name": "ERC20InsufficientAllowance",
      "type": "error"
    },
    {
      "inputs": [
        {
          "internalType": "address",
          "name": "sender",
          "type": "address"
        },
        {
          "internalType": "uint256",
          "name": "balance",
          "type": "uint256"
        },
        {
          "internalType": "uint256",
          "name": "needed",
          "type": "uint256"
        }
      ],
      "name": "ERC20InsufficientBalance",
      "type": "error"
    },
    {
      "inputs": [
        {
          "internalType": "address",
          "name": "approver",
          "type": "address"
        }
      ],
      "name": "ERC20InvalidApprover",
      "type": "error"
    },
    {
      "inputs": [
        {
          "internalType": "address",
          "name": "receiver",
          "type": "address"
        }
      ],
      "name": "ERC20InvalidReceiver",
      "type": "error"
    },
    {
      "inputs": [
        {
          "internalType": "address",
          "name": "sender",
          "type": "address"
        }
      ],
      "name": "ERC20InvalidSender",
      "type": "error"
    },
    {
      "inputs": [
        {
          "internalType": "address",
          "name": "spender",
          "type": "address"
        }
      ],
      "name": "ERC20InvalidSpender",
      "type": "error"
    },
    {
      "inputs": [],
      "name": "EnforcedPause",
      "type": "error"
    },
    {
      "inputs": [],
      "name": "ExpectedPause",
      "type": "error"
    },
    {
      "anonymous": false,
      "inputs": [
        {
          "indexed": true,
          "internalType": "address",
          "name": "owner",
          "type": "address"
        },
        {
          "indexed": true,
          "internalType": "address",
          "name": "spender",
          "type": "address"
        },
        {
          "indexed": false,
          "internalType": "uint256",
          "name": "value",
          "type": "uint256"
        }
      ],
      "name": "Approval",
      "type": "event"
    },
    {
      "anonymous": false,
      "inputs": [
        {
          "indexed": false,
          "internalType": "address",
          "name": "account",
          "type": "address"
        }
      ],
      "name": "Paused",
      "type": "event"
    },
    {
      "anonymous": false,
      "inputs": [
        {
          "indexed": true,
          "internalType": "bytes32",
          "name": "role",
          "type": "bytes32"
        },
        {
          "indexed": true,
          "internalType": "bytes32",
          "name": "previousAdminRole",
          "type": "bytes32"
        },
        {
          "indexed": true,
          "internalType": "bytes32",
          "name": "newAdminRole",
          "type": "bytes32"
        }
      ],
      "name": "RoleAdminChanged",
      "type": "event"
    },
    {
      "anonymous": false,
      "inputs": [
        {
          "indexed": true,
          "internalType": "bytes32",
          "name": "role",
          "type": "bytes32"
        },
        {
          "indexed": true,
          "internalType": "address",
          "name": "account",
          "type": "address"
        },
        {
          "indexed": true,
          "internalType": "address",
          "name": "sender",
          "type": "address"
        }
      ],
      "name": "RoleGranted",
      "type": "event"
    },
    {
      "anonymous": false,
      "inputs": [
        {
          "indexed": true,
          "internalType": "bytes32",
          "name": "role",
          "type": "bytes32"
        },
        {
          "indexed": true,
          "internalType": "address",
          "name": "account",
          "type": "address"
        },
        {
          "indexed": true,
          "internalType": "address",
          "name": "sender",
          "type": "address"
        }
      ],
      "name": "RoleRevoked",
      "type": "event"
    },
    {
      "anonymous": false,
      "inputs": [
        {
          "indexed": true,
          "internalType": "address",
          "name": "from",
          "type": "address"
        },
        {
          "indexed": true,
          "internalType": "address",
          "name": "to",
          "type": "address"
        },
        {
          "indexed": false,
          "internalType": "uint256",
          "name": "value",
          "type": "uint256"
        }
      ],
      "name": "Transfer",
      "type": "event"
    },
    {
      "anonymous": false,
      "inputs": [
        {
          "indexed": false,
          "internalType": "address",
          "name": "account",
          "type": "address"
        }
      ],
      "name": "Unpaused",
      "type": "event"
    },
    {
      "inputs": [],
      "name": "DEFAULT_ADMIN_ROLE",
      "outputs": [
        {
          "internalType": "bytes32",
          "name": "",
          "type": "bytes32"
        }
      ],
      "stateMutability": "view",
      "type": "function"
    },
    {
      "inputs": [],
      "name": "MINTER_ROLE",
      "outputs": [
        {
          "internalType": "bytes32",
          "name": "",
          "type": "bytes32"
        }
      ],
      "stateMutability": "view",
      "type": "function"
    },
    {
      "inputs": [],
      "name": "PAUSER_ROLE",
      "outputs": [
        {
          "internalType": "bytes32",
          "name": "",
          "type": "bytes32"
        }
      ],
      "stateMutability": "view",
      "type": "function"
    },
    {
      "inputs": [
        {
          "internalType": "address",
          "name": "owner",
          "type": "address"
        },
        {
          "internalType": "address",
          "name": "spender",
          "type": "address"
        }
      ],
      "name": "allowance",
      "outputs": [
        {
          "internalType": "uint256",
          "name": "",
          "type": "uint256"
        }
      ],
      "stateMutability": "view",
      "type": "function"
    },
    {
      "inputs": [
        {
          "internalType": "address",
          "name": "spender",
          "type": "address"
        },
        {
          "internalType": "uint256",
          "name": "value",
          "type": "uint256"
        }
      ],
      "name": "approve",
      "outputs": [
        {
          "internalType": "bool",
          "name": "",
          "type": "bool"
        }
      ],
      "stateMutability": "nonpayable",
      "type": "function"
    },
    {
      "inputs": [
        {
          "internalType": "address",
          "name": "account",
          "type": "address"
        }
      ],
      "name": "balanceOf",
      "outputs": [
        {
          "internalType": "uint256",
          "name": "",
          "type": "uint256"
        }
      ],
      "stateMutability": "view",
      "type": "function"
    },
    {
      "inputs": [
        {
          "internalType": "uint256",
          "name": "value",
          "type": "uint256"
        }
      ],
      "name": "burn",
      "outputs": [],
      "stateMutability": "nonpayable",
      "type": "function"
    },
    {
      "inputs": [
        {
          "internalType": "address",
          "name": "account",
          "type": "address"
        },
        {
          "internalType": "uint256",
          "name": "value",
          "type": "uint256"
        }
      ],
      "name": "burnFrom",
      "outputs": [],
      "stateMutability": "nonpayable",
      "type": "function"
    },
    {
      "inputs": [],
      "name": "decimals",
      "outputs": [
        {
          "internalType": "uint8",
          "name": "",
          "type": "uint8"
        }
      ],
      "stateMutability": "view",
      "type": "function"
    },
    {
      "inputs": [
        {
          "internalType": "bytes32",
          "name": "role",
          "type": "bytes32"
        }
      ],
      "name": "getRoleAdmin",
      "outputs": [
        {
          "internalType": "bytes32",
          "name": "",
          "type": "bytes32"
        }
      ],
      "stateMutability": "view",
      "type": "function"
    },
    {
      "inputs": [
        {
          "internalType": "bytes32",
          "name": "role",
          "type": "bytes32"
        },
        {
          "internalType": "address",
          "name": "account",
          "type": "address"
        }
      ],
      "name": "grantRole",
      "outputs": [],
      "stateMutability": "nonpayable",
      "type": "function"
    },
    {
      "inputs": [
        {
          "internalType": "bytes32",
          "name": "role",
          "type": "bytes32"
        },
        {
          "internalType": "address",
          "name": "account",
          "type": "address"
        }
      ],
      "name": "hasRole",
      "outputs": [
        {
          "internalType": "bool",
          "name": "",
          "type": "bool"
        }
      ],
      "stateMutability": "view",
      "type": "function"
    },
    {
      "inputs": [
        {
          "internalType": "address",
          "name": "to",
          "type": "address"
        },
        {
          "internalType": "uint256",
          "name": "amount",
          "type": "uint256"
        }
      ],
      "name": "mint",
      "outputs": [],
      "stateMutability": "nonpayable",
      "type": "function"
    },
    {
      "inputs": [],
      "name": "name",
      "outputs": [
        {
          "internalType": "string",
          "name": "",
          "type": "string"
        }
      ],
      "stateMutability": "view",
      "type": "function"
    },
    {
      "inputs": [],
      "name": "pause",
      "outputs": [],
      "stateMutability": "nonpayable",
      "type": "function"
    },
    {
      "inputs": [],
      "name": "paused",
      "outputs": [
        {
          "internalType": "bool",
          "name": "",
          "type": "bool"
        }
      ],
      "stateMutability": "view",
      "type": "function"
    },
    {
      "inputs": [
        {
          "internalType": "bytes32",
          "name": "role",
          "type": "bytes32"
        },
        {
          "internalType": "address",
          "name": "callerConfirmation",
          "type": "address"
        }
      ],
      "name": "renounceRole",
      "outputs": [],
      "stateMutability": "nonpayable",
      "type": "function"
    },
    {
      "inputs": [
        {
          "internalType": "bytes32",
          "name": "role",
          "type": "bytes32"
        },
        {
          "internalType": "address",
          "name": "account",
          "type": "address"
        }
      ],
      "name": "revokeRole",
      "outputs": [],
      "stateMutability": "nonpayable",
      "type": "function"
    },
    {
      "inputs": [
        {
          "internalType": "bytes4",
          "name": "interfaceId",
          "type": "bytes4"
        }
      ],
      "name": "supportsInterface",
      "outputs": [
        {
          "internalType": "bool",
          "name": "",
          "type": "bool"
        }
      ],
      "stateMutability": "view",
      "type": "function"
    },
    {
      "inputs": [],
      "name": "symbol",
      "outputs": [
        {
          "internalType": "string",
          "name": "",
          "type": "string"
        }
      ],
      "stateMutability": "view",
      "type": "function"
    },
    {
      "inputs": [],
      "name": "totalSupply",
      "outputs": [
        {
          "internalType": "uint256",
          "name": "",
          "type": "uint256"
        }
      ],
      "stateMutability": "view",
      "type": "function"
    },
    {
      "inputs": [
        {
          "internalType": "address",
          "name": "to",
          "type": "address"
        },
        {
          "internalType": "uint256",
          "name": "value",
          "type": "uint256"
        }
      ],
      "name": "transfer",
      "outputs": [
        {
          "internalType": "bool",
          "name": "",
          "type": "bool"
        }
      ],
      "stateMutability": "nonpayable",
      "type": "function"
    },
    {
      "inputs": [
        {
          "internalType": "address",
          "name": "from",
          "type": "address"
        },
        {
          "internalType": "address",
          "name": "to",
          "type": "address"
        },
        {
          "internalType": "uint256",
          "name": "value",
          "type": "uint256"
        }
      ],
      "name": "transferFrom",
      "outputs": [
        {
          "internalType": "bool",
          "name": "",
          "type": "bool"
        }
      ],
      "stateMutability": "nonpayable",
      "type": "function"
    },
    {
      "inputs": [],
      "name": "unpause",
      "outputs": [],
      "stateMutability": "nonpayable",
      "type": "function"
    }
  ],
  "bytecode": "0x608060405234801561001057600080fd5b506040516121df3803806121df8339818101604052810190610032919061032d565b6040518060400160405280600481526020017f424c544d000000000000000000000000000000000000000000000000000000008152506040518060400160405280600481526020017f424c544d0000000000000000000000000000000000000000000000000000000081525081600390816100ad91906105d0565b5080600490816100bd91906105d0565b5050506000600560006101000a81548160ff0219169083151502179055506100ee6000801b8461015960201b60201c565b5061011f7f65d7a28e3265b37a6474929f336521b332c1681b933f6cb9f3376673440d862a8361015960201b60201c565b506101507f9f2df0fed2c77648de5860a4cc508cd0818c85b8b8a1ab4ceeef8d981c8956a68261015960201b60201c565b505050506106a2565b600061016b838361025760201b60201c565b61024c5760016006600085815260200190815260200160002060000160008473ffffffffffffffffffffffffffffffffffffffff1673ffffffffffffffffffffffffffffffffffffffff16815260200190815260200160002060006101000a81548160ff0219169083151502179055506101e96102c260201b60201c565b73ffffffffffffffffffffffffffffffffffffffff168273ffffffffffffffffffffffffffffffffffffffff16847f2f8788117e7eff1d82e926ec794901d17c78024a50270940304540a733656f0d60405160405180910390a460019050610251565b600090505b92915050565b60006006600084815260200190815260200160002060000160008373ffffffffffffffffffffffffffffffffffffffff1673ffffffffffffffffffffffffffffffffffffffff16815260200190815260200160002060009054906101000a900460ff16905092915050565b600033905090565b600080fd5b600073ffffffffffffffffffffffffffffffffffffffff82169050919050565b60006102fa826102cf565b9050919050565b61030a816102ef565b811461031557600080fd5b50565b60008151905061032781610301565b92915050565b600080600060608486031215610346576103456102ca565b5b600061035486828701610318565b935050602061036586828701610318565b925050604061037686828701610318565b9150509250925092565b600081519050919050565b7f4e487b7100000000000000000000000000000000000000000000000000000000600052604160045260246000fd5b7f4e487b7100000000000000000000000000000000000000000000000000000000600052602260045260246000fd5b6000600282049050600182168061040157607f821691505b602082108103610414576104136103ba565b5b50919050565b60008190508160005260206000209050919050565b60006020601f8301049050919050565b600082821b905092915050565b60006008830261047c7fffffffffffffffffffffffffffffffffffffffffffffffffffffffffffffffff8261043f565b610486868361043f565b95508019841693508086168417925050509392505050565b6000819050919050565b6000819050919050565b60006104cd6104c86104c38461049e565b6104a8565b61049e565b9050919050565b6000819050919050565b6104e7836104b2565b6104fb6104f3826104d4565b84845461044c565b825550505050565b600090565b610510610503565b61051b8184846104de565b505050565b5b8181101561053f57610534600082610508565b600181019050610521565b5050565b601f821115610584576105558161041a565b61055e8461042f565b8101602085101561056d578190505b6105816105798561042f565b830182610520565b50505b505050565b600082821c905092915050565b60006105a760001984600802610589565b1980831691505092915050565b60006105c08383610596565b9150826002028217905092915050565b6105d982610380565b67ffffffffffffffff8111156105f2576105f161038b565b5b6105fc82546103e9565b610607828285610543565b600060209050601f83116001811461063a5760008415610628578287015190505b61063285826105b4565b86555061069a565b601f1984166106488661041a565b60005b828110156106705784890151825560018201915060208501945060208101905061064b565b8683101561068d5784890151610689601f891682610596565b8355505b6001600288020188555050505b505050505050565b611b2e806106b16000396000f3fe608060405234801561001057600080fd5b50600436106101585760003560e01c80635c975abb116100c3578063a217fddf1161007c578063a217fddf146103b3578063a9059cbb146103d1578063d539139314610401578063d547741f1461041f578063dd62ed3e1461043b578063e63ab1e91461046b57610158565b80635c975abb146102f157806370a082311461030f57806379cc67901461033f5780638456cb591461035b57806391d148541461036557806395d89b411461039557610158565b80632f2ff15d116101155780632f2ff15d14610259578063313ce5671461027557806336568abe146102935780633f4ba83a146102af57806340c10f19146102b957806342966c68146102d557610158565b806301ffc9a71461015d57806306fdde031461018d578063095ea7b3146101ab57806318160ddd146101db57806323b872dd146101f9578063248a9ca314610229575b600080fd5b610177600480360381019061017291906115a7565b610489565b60405161018491906115ef565b60405180910390f35b610195610503565b6040516101a2919061169a565b60405180910390f35b6101c560048036038101906101c09190611750565b610595565b6040516101d291906115ef565b60405180910390f35b6101e36105b8565b6040516101f0919061179f565b60405180910390f35b610213600480360381019061020e91906117ba565b6105c2565b60405161022091906115ef565b60405180910390f35b610243600480360381019061023e9190611843565b6105f1565b604051610250919061187f565b60405180910390f35b610273600480360381019061026e919061189a565b610611565b005b61027d610633565b60405161028a91906118f6565b60405180910390f35b6102ad60048036038101906102a8919061189a565b61063c565b005b6102b76106b7565b005b6102d360048036038101906102ce9190611750565b6106ec565b005b6102ef60048036038101906102ea9190611911565b610725565b005b6102f9610764565b60405161030691906115ef565b60405180910390f35b6103296004803603810190610324919061193e565b61077b565b604051610336919061179f565b60405180910390f35b61035960048036038101906103549190611750565b6107c3565b005b610363610804565b005b61037f600480360381019061037a919061189a565b610839565b60405161038c91906115ef565b60405180910390f35b61039d6108a4565b6040516103aa919061169a565b60405180910390f35b6103bb610936565b6040516103c8919061187f565b60405180910390f35b6103eb60048036038101906103e69190611750565b61093d565b6040516103f891906115ef565b60405180910390f35b610409610960565b604051610416919061187f565b60405180910390f35b6104396004803603810190610434919061189a565b610984565b005b6104556004803603810190610450919061196b565b6109a6565b604051610462919061179f565b60405180910390f35b610473610a2d565b604051610480919061187f565b60405180910390f35b60007f7965db0b000000000000000000000000000000000000000000000000000000007bffffffffffffffffffffffffffffffffffffffffffffffffffffffff1916827bffffffffffffffffffffffffffffffffffffffffffffffffffffffff191614806104fc57506104fb82610a51565b5b9050919050565b606060038054610512906119da565b80601f016020809104026020016040519081016040528092919081815260200182805461053e906119da565b801561058b5780601f106105605761010080835404028352916020019161058b565b820191906000526020600020905b81548152906001019060200180831161056e57829003601f168201915b5050505050905090565b6000806105a0610abb565b90506105ad818585610ac3565b600191505092915050565b6000600254905090565b6000806105cd610abb565b90506105da858285610ad5565b6105e5858585610b69565b60019150509392505050565b600060066000838152602001908152602001600020600101549050919050565b61061a826105f1565b61062381610c5d565b61062d8383610c71565b50505050565b60006006905090565b610644610abb565b73ffffffffffffffffffffffffffffffffffffffff168173ffffffffffffffffffffffffffffffffffffffff16146106a8576040517f6697b23200000000000000000000000000000000000000000000000000000000815260040160405180910390fd5b6106b28282610d63565b505050565b7f65d7a28e3265b37a6474929f336521b332c1681b933f6cb9f3376673440d862a6106e181610c5d565b6106e9610e56565b50565b7f9f2df0fed2c77648de5860a4cc508cd0818c85b8b8a1ab4ceeef8d981c8956a661071681610c5d565b6107208383610eb9565b505050565b7f9f2df0fed2c77648de5860a4cc508cd0818c85b8b8a1ab4ceeef8d981c8956a661074f81610c5d565b610757610f3b565b61076082610f7c565b5050565b6000600560009054906101000a900460ff16905090565b60008060008373ffffffffffffffffffffffffffffffffffffffff1673ffffffffffffffffffffffffffffffffffffffff168152602001908152602001600020549050919050565b7f9f2df0fed2c77648de5860a4cc508cd0818c85b8b8a1ab4ceeef8d981c8956a66107ed81610c5d565b6107f5610f3b565b6107ff8383610f90565b505050565b7f65d7a28e3265b37a6474929f336521b332c1681b933f6cb9f3376673440d862a61082e81610c5d565b610836610fb0565b50565b60006006600084815260200190815260200160002060000160008373ffffffffffffffffffffffffffffffffffffffff1673ffffffffffffffffffffffffffffffffffffffff16815260200190815260200160002060009054906101000a900460ff16905092915050565b6060600480546108b3906119da565b80601f01602080910402602001604051908101604052809291908181526020018280546108df906119da565b801561092c5780601f106109015761010080835404028352916020019161092c565b820191906000526020600020905b81548152906001019060200180831161090f57829003601f168201915b5050505050905090565b6000801b81565b600080610948610abb565b9050610955818585610b69565b600191505092915050565b7f9f2df0fed2c77648de5860a4cc508cd0818c85b8b8a1ab4ceeef8d981c8956a681565b61098d826105f1565b61099681610c5d565b6109a08383610d63565b50505050565b6000600160008473ffffffffffffffffffffffffffffffffffffffff1673ffffffffffffffffffffffffffffffffffffffff16815260200190815260200160002060008373ffffffffffffffffffffffffffffffffffffffff1673ffffffffffffffffffffffffffffffffffffffff16815260200190815260200160002054905092915050565b7f65d7a28e3265b37a6474929f336521b332c1681b933f6cb9f3376673440d862a81565b60007f01ffc9a7000000000000000000000000000000000000000000000000000000007bffffffffffffffffffffffffffffffffffffffffffffffffffffffff1916827bffffffffffffffffffffffffffffffffffffffffffffffffffffffff1916149050919050565b600033905090565b610ad08383836001611013565b505050565b6000610ae184846109a6565b90507fffffffffffffffffffffffffffffffffffffffffffffffffffffffffffffffff8114610b635781811015610b53578281836040517ffb8f41b2000000000000000000000000000000000000000000000000000000008152600401610b4a93929190611a1a565b60405180910390fd5b610b6284848484036000611013565b5b50505050565b600073ffffffffffffffffffffffffffffffffffffffff168373ffffffffffffffffffffffffffffffffffffffff1603610bdb5760006040517f96c6fd1e000000000000000000000000000000000000000000000000000000008152600401610bd29190611a51565b60405180910390fd5b600073ffffffffffffffffffffffffffffffffffffffff168273ffffffffffffffffffffffffffffffffffffffff1603610c4d5760006040517fec442f05000000000000000000000000000000000000000000000000000000008152600401610c449190611a51565b60405180910390fd5b610c588383836111ea565b505050565b610c6e81610c69610abb565b6111fa565b50565b6000610c7d8383610839565b610d585760016006600085815260200190815260200160002060000160008473ffffffffffffffffffffffffffffffffffffffff1673ffffffffffffffffffffffffffffffffffffffff16815260200190815260200160002060006101000a81548160ff021916908315150217905550610cf5610abb565b73ffffffffffffffffffffffffffffffffffffffff168273ffffffffffffffffffffffffffffffffffffffff16847f2f8788117e7eff1d82e926ec794901d17c78024a50270940304540a733656f0d60405160405180910390a460019050610d5d565b600090505b92915050565b6000610d6f8383610839565b15610e4b5760006006600085815260200190815260200160002060000160008473ffffffffffffffffffffffffffffffffffffffff1673ffffffffffffffffffffffffffffffffffffffff16815260200190815260200160002060006101000a81548160ff021916908315150217905550610de8610abb565b73ffffffffffffffffffffffffffffffffffffffff168273ffffffffffffffffffffffffffffffffffffffff16847ff6391f5c32d9c69d2a47ea670b442974b53935d1edc7fd64eb21e047a839171b60405160405180910390a460019050610e50565b600090505b92915050565b610e5e61124b565b6000600560006101000a81548160ff0219169083151502179055507f5db9ee0a495bf2e6ff9c91a7834c1ba4fdd244a5e8aa4e537bd38aeae4b073aa610ea2610abb565b604051610eaf9190611a51565b60405180910390a1565b600073ffffffffffffffffffffffffffffffffffffffff168273ffffffffffffffffffffffffffffffffffffffff1603610f2b5760006040517fec442f05000000000000000000000000000000000000000000000000000000008152600401610f229190611a51565b60405180910390fd5b610f37600083836111ea565b5050565b610f43610764565b15610f7a576040517fd93c066500000000000000000000000000000000000000000000000000000000815260040160405180910390fd5b565b610f8d610f87610abb565b8261128b565b50565b610fa282610f9c610abb565b83610ad5565b610fac828261128b565b5050565b610fb8610f3b565b6001600560006101000a81548160ff0219169083151502179055507f62e78cea01bee320cd4e420270b5ea74000d11b0c9f74754ebdbfc544b05a258610ffc610abb565b6040516110099190611a51565b60405180910390a1565b600073ffffffffffffffffffffffffffffffffffffffff168473ffffffffffffffffffffffffffffffffffffffff16036110855760006040517fe602df0500000000000000000000000000000000000000000000000000000000815260040161107c9190611a51565b60405180910390fd5b600073ffffffffffffffffffffffffffffffffffffffff168373ffffffffffffffffffffffffffffffffffffffff16036110f75760006040517f94280d620000000000000000000000000000000000000000000000000000000081526004016110ee9190611a51565b60405180910390fd5b81600160008673ffffffffffffffffffffffffffffffffffffffff1673ffffffffffffffffffffffffffffffffffffffff16815260200190815260200160002060008573ffffffffffffffffffffffffffffffffffffffff1673ffffffffffffffffffffffffffffffffffffffff1681526020019081526020016000208190555080156111e4578273ffffffffffffffffffffffffffffffffffffffff168473ffffffffffffffffffffffffffffffffffffffff167f8c5be1e5ebec7d5bd14f71427d1e84f3dd0314c0f7b2291e5b200ac8c7c3b925846040516111db919061179f565b60405180910390a35b50505050565b6111f583838361130d565b505050565b6112048282610839565b6112475780826040517fe2517d3f00000000000000000000000000000000000000000000000000000000815260040161123e929190611a6c565b60405180910390fd5b5050565b611253610764565b611289576040517f8dfc202b00000000000000000000000000000000000000000000000000000000815260040160405180910390fd5b565b600073ffffffffffffffffffffffffffffffffffffffff168273ffffffffffffffffffffffffffffffffffffffff16036112fd5760006040517f96c6fd1e0000000000000000000000000000000000000000000000000000000081526004016112f49190611a51565b60405180910390fd5b611309826000836111ea565b5050565b611315610f3b565b611320838383611325565b505050565b600073ffffffffffffffffffffffffffffffffffffffff168373ffffffffffffffffffffffffffffffffffffffff160361137757806002600082825461136b9190611ac4565b9250508190555061144a565b60008060008573ffffffffffffffffffffffffffffffffffffffff1673ffffffffffffffffffffffffffffffffffffffff16815260200190815260200160002054905081811015611403578381836040517fe450d38c0000000000000000000000000000000000000000000000000000000081526004016113fa93929190611a1a565b60405180910390fd5b8181036000808673ffffffffffffffffffffffffffffffffffffffff1673ffffffffffffffffffffffffffffffffffffffff16815260200190815260200160002081905550505b600073ffffffffffffffffffffffffffffffffffffffff168273ffffffffffffffffffffffffffffffffffffffff160361149357806002600082825403925050819055506114e0565b806000808473ffffffffffffffffffffffffffffffffffffffff1673ffffffffffffffffffffffffffffffffffffffff168152602001908152602001600020600082825401925050819055505b8173ffffffffffffffffffffffffffffffffffffffff168373ffffffffffffffffffffffffffffffffffffffff167fddf252ad1be2c89b69c2b068fc378daa952ba7f163c4a11628f55a4df523b3ef8360405161153d919061179f565b60405180910390a3505050565b600080fd5b60007fffffffff0000000000000000000000000000000000000000000000000000000082169050919050565b6115848161154f565b811461158f57600080fd5b50565b6000813590506115a18161157b565b92915050565b6000602082840312156115bd576115bc61154a565b5b60006115cb84828501611592565b91505092915050565b60008115159050919050565b6115e9816115d4565b82525050565b600060208201905061160460008301846115e0565b92915050565b600081519050919050565b600082825260208201905092915050565b60005b83811015611644578082015181840152602081019050611629565b60008484015250505050565b6000601f19601f8301169050919050565b600061166c8261160a565b6116768185611615565b9350611686818560208601611626565b61168f81611650565b840191505092915050565b600060208201905081810360008301526116b48184611661565b905092915050565b600073ffffffffffffffffffffffffffffffffffffffff82169050919050565b60006116e7826116bc565b9050919050565b6116f7816116dc565b811461170257600080fd5b50565b600081359050611714816116ee565b92915050565b6000819050919050565b61172d8161171a565b811461173857600080fd5b50565b60008135905061174a81611724565b92915050565b600080604083850312156117675761176661154a565b5b600061177585828601611705565b92505060206117868582860161173b565b9150509250929050565b6117998161171a565b82525050565b60006020820190506117b46000830184611790565b92915050565b6000806000606084860312156117d3576117d261154a565b5b60006117e186828701611705565b93505060206117f286828701611705565b92505060406118038682870161173b565b9150509250925092565b6000819050919050565b6118208161180d565b811461182b57600080fd5b50565b60008135905061183d81611817565b92915050565b6000602082840312156118595761185861154a565b5b60006118678482850161182e565b91505092915050565b6118798161180d565b82525050565b60006020820190506118946000830184611870565b92915050565b600080604083850312156118b1576118b061154a565b5b60006118bf8582860161182e565b92505060206118d085828601611705565b9150509250929050565b600060ff82169050919050565b6118f0816118da565b82525050565b600060208201905061190b60008301846118e7565b92915050565b6000602082840312156119275761192661154a565b5b60006119358482850161173b565b91505092915050565b6000602082840312156119545761195361154a565b5b600061196284828501611705565b91505092915050565b600080604083850312156119825761198161154a565b5b600061199085828601611705565b92505060206119a185828601611705565b9150509250929050565b7f4e487b7100000000000000000000000000000000000000000000000000000000600052602260045260246000fd5b600060028204905060018216806119f257607f821691505b602082108103611a0557611a046119ab565b5b50919050565b611a14816116dc565b82525050565b6000606082019050611a2f6000830186611a0b565b611a3c6020830185611790565b611a496040830184611790565b949350505050565b6000602082019050611a666000830184611a0b565b92915050565b6000604082019050611a816000830185611a0b565b611a8e6020830184611870565b9392505050565b7f4e487b7100000000000000000000000000000000000000000000000000000000600052601160045260246000fd5b6000611acf8261171a565b9150611ada8361171a565b9250828201905080821115611af257611af1611a95565b5b9291505056fea26469706673582212207f4c3a080a00904d3c06203eb9c4b70230b028c6b843eb168bddc51b8948944e64736f6c634300081b0033",
  "linkReferences": {},
  "deployedLinkReferences": {}
}