{
  "_format": "hh-sol-artifact-1",
  "contractName": "BLTMLiquidityPool",
  "sourceName": "contracts/BLTMLiquidityPool.sol",
  "abi": [
    {
      "inputs": [
        {
          "internalType": "address",
          "name": "erc20TokenAddress_",
          "type": "address"
        },
        {
          "internalType": "address",
          "name": "usdcTokenAddress_",
          "type": "address"
        },
        {
          "internalType": "uint256",
          "name": "exchangeRate_",
          "type": "uint256"
        }
      ],
      "stateMutability": "nonpayable",
      "type": "constructor"
    },
    {
      "inputs": [],
      "name": "AccessControlBadConfirmation",
      "type": "error"
    },
    {
      "inputs": [
        {
          "internalType": "address",
          "name": "account",
          "type": "address"
        },
        {
          "internalType": "bytes32",
          "name": "neededRole",
          "type": "bytes32"
        }
      ],
      "name": "AccessControlUnauthorizedAccount",
      "type": "error"
    },
    {
      "anonymous": false,
      "inputs": [
        {
          "indexed": true,
          "internalType": "bytes32",
          "name": "role",
          "type": "bytes32"
        },
        {
          "indexed": true,
          "internalType": "bytes32",
          "name": "previousAdminRole",
          "type": "bytes32"
        },
        {
          "indexed": true,
          "internalType": "bytes32",
          "name": "newAdminRole",
          "type": "bytes32"
        }
      ],
      "name": "RoleAdminChanged",
      "type": "event"
    },
    {
      "anonymous": false,
      "inputs": [
        {
          "indexed": true,
          "internalType": "bytes32",
          "name": "role",
          "type": "bytes32"
        },
        {
          "indexed": true,
          "internalType": "address",
          "name": "account",
          "type": "address"
        },
        {
          "indexed": true,
          "internalType": "address",
          "name": "sender",
          "type": "address"
        }
      ],
      "name": "RoleGranted",
      "type": "event"
    },
    {
      "anonymous": false,
      "inputs": [
        {
          "indexed": true,
          "internalType": "bytes32",
          "name": "role",
          "type": "bytes32"
        },
        {
          "indexed": true,
          "internalType": "address",
          "name": "account",
          "type": "address"
        },
        {
          "indexed": true,
          "internalType": "address",
          "name": "sender",
          "type": "address"
        }
      ],
      "name": "RoleRevoked",
      "type": "event"
    },
    {
      "inputs": [],
      "name": "DEFAULT_ADMIN_ROLE",
      "outputs": [
        {
          "internalType": "bytes32",
          "name": "",
          "type": "bytes32"
        }
      ],
      "stateMutability": "view",
      "type": "function"
    },
    {
      "inputs": [],
      "name": "OWNER_ROLE",
      "outputs": [
        {
          "internalType": "bytes32",
          "name": "",
          "type": "bytes32"
        }
      ],
      "stateMutability": "view",
      "type": "function"
    },
    {
      "inputs": [],
      "name": "exchangeRate",
      "outputs": [
        {
          "internalType": "uint256",
          "name": "",
          "type": "uint256"
        }
      ],
      "stateMutability": "view",
      "type": "function"
    },
    {
      "inputs": [
        {
          "internalType": "uint256",
          "name": "value",
          "type": "uint256"
        }
      ],
      "name": "exchangeTokenForUsdc",
      "outputs": [],
      "stateMutability": "nonpayable",
      "type": "function"
    },
    {
      "inputs": [
        {
          "internalType": "uint256",
          "name": "value",
          "type": "uint256"
        }
      ],
      "name": "exchangeUsdcForToken",
      "outputs": [],
      "stateMutability": "nonpayable",
      "type": "function"
    },
    {
      "inputs": [
        {
          "internalType": "bytes32",
          "name": "role",
          "type": "bytes32"
        }
      ],
      "name": "getRoleAdmin",
      "outputs": [
        {
          "internalType": "bytes32",
          "name": "",
          "type": "bytes32"
        }
      ],
      "stateMutability": "view",
      "type": "function"
    },
    {
      "inputs": [
        {
          "internalType": "bytes32",
          "name": "role",
          "type": "bytes32"
        },
        {
          "internalType": "address",
          "name": "account",
          "type": "address"
        }
      ],
      "name": "grantRole",
      "outputs": [],
      "stateMutability": "nonpayable",
      "type": "function"
    },
    {
      "inputs": [
        {
          "internalType": "bytes32",
          "name": "role",
          "type": "bytes32"
        },
        {
          "internalType": "address",
          "name": "account",
          "type": "address"
        }
      ],
      "name": "hasRole",
      "outputs": [
        {
          "internalType": "bool",
          "name": "",
          "type": "bool"
        }
      ],
      "stateMutability": "view",
      "type": "function"
    },
    {
      "inputs": [
        {
          "internalType": "bytes32",
          "name": "role",
          "type": "bytes32"
        },
        {
          "internalType": "address",
          "name": "callerConfirmation",
          "type": "address"
        }
      ],
      "name": "renounceRole",
      "outputs": [],
      "stateMutability": "nonpayable",
      "type": "function"
    },
    {
      "inputs": [
        {
          "internalType": "bytes32",
          "name": "role",
          "type": "bytes32"
        },
        {
          "internalType": "address",
          "name": "account",
          "type": "address"
        }
      ],
      "name": "revokeRole",
      "outputs": [],
      "stateMutability": "nonpayable",
      "type": "function"
    },
    {
      "inputs": [
        {
          "internalType": "bytes4",
          "name": "interfaceId",
          "type": "bytes4"
        }
      ],
      "name": "supportsInterface",
      "outputs": [
        {
          "internalType": "bool",
          "name": "",
          "type": "bool"
        }
      ],
      "stateMutability": "view",
      "type": "function"
    },
    {
      "inputs": [
        {
          "internalType": "uint256",
          "name": "exchangeRate_",
          "type": "uint256"
        }
      ],
      "name": "updateExchangeRate",
      "outputs": [],
      "stateMutability": "nonpayable",
      "type": "function"
    },
    {
      "inputs": [
        {
          "internalType": "uint256",
          "name": "value",
          "type": "uint256"
        }
      ],
      "name": "withdrawUsdc",
      "outputs": [],
      "stateMutability": "nonpayable",
      "type": "function"
    }
  ],
  "bytecode": "0x608060405234801561001057600080fd5b5060405161185438038061185483398181016040528101906100329190610406565b61006f7fb19546dff01e856fb3f010c267a7b1c60363cf8a4664e21cc89c26224620214e61006461010960201b60201c565b61011160201b60201c565b5082600160006101000a81548173ffffffffffffffffffffffffffffffffffffffff021916908373ffffffffffffffffffffffffffffffffffffffff16021790555081600260006101000a81548173ffffffffffffffffffffffffffffffffffffffff021916908373ffffffffffffffffffffffffffffffffffffffff1602179055506101018161020e60201b60201c565b50505061054d565b600033905090565b6000610123838361028c60201b60201c565b61020357600160008085815260200190815260200160002060000160008473ffffffffffffffffffffffffffffffffffffffff1673ffffffffffffffffffffffffffffffffffffffff16815260200190815260200160002060006101000a81548160ff0219169083151502179055506101a061010960201b60201c565b73ffffffffffffffffffffffffffffffffffffffff168273ffffffffffffffffffffffffffffffffffffffff16847f2f8788117e7eff1d82e926ec794901d17c78024a50270940304540a733656f0d60405160405180910390a460019050610208565b600090505b92915050565b7fb19546dff01e856fb3f010c267a7b1c60363cf8a4664e21cc89c26224620214e61023e816102f660201b60201c565b60008211610281576040517f08c379a0000000000000000000000000000000000000000000000000000000008152600401610278906104dc565b60405180910390fd5b816003819055505050565b600080600084815260200190815260200160002060000160008373ffffffffffffffffffffffffffffffffffffffff1673ffffffffffffffffffffffffffffffffffffffff16815260200190815260200160002060009054906101000a900460ff16905092915050565b6103138161030861010960201b60201c565b61031660201b60201c565b50565b610326828261028c60201b60201c565b6103695780826040517fe2517d3f000000000000000000000000000000000000000000000000000000008152600401610360929190610524565b60405180910390fd5b5050565b600080fd5b600073ffffffffffffffffffffffffffffffffffffffff82169050919050565b600061039d82610372565b9050919050565b6103ad81610392565b81146103b857600080fd5b50565b6000815190506103ca816103a4565b92915050565b6000819050919050565b6103e3816103d0565b81146103ee57600080fd5b50565b600081519050610400816103da565b92915050565b60008060006060848603121561041f5761041e61036d565b5b600061042d868287016103bb565b935050602061043e868287016103bb565b925050604061044f868287016103f1565b9150509250925092565b600082825260208201905092915050565b7f45786368616e676520726174652063616e6e6f74206265206c657373206f722060008201527f657175616c20746f203000000000000000000000000000000000000000000000602082015250565b60006104c6602a83610459565b91506104d18261046a565b604082019050919050565b600060208201905081810360008301526104f5816104b9565b9050919050565b61050581610392565b82525050565b6000819050919050565b61051e8161050b565b82525050565b600060408201905061053960008301856104fc565b6105466020830184610515565b9392505050565b6112f88061055c6000396000f3fe608060405234801561001057600080fd5b50600436106100cf5760003560e01c80637cab53471161008c578063b9e205ae11610066578063b9e205ae14610210578063bc1db03a1461022c578063d547741f14610248578063e58378bb14610264576100cf565b80637cab5347146101a657806391d14854146101c2578063a217fddf146101f2576100cf565b806301ffc9a7146100d4578063248a9ca3146101045780632f2ff15d1461013457806336568abe146101505780633ba0b9a91461016c5780635b06dece1461018a575b600080fd5b6100ee60048036038101906100e99190610ccb565b610282565b6040516100fb9190610d13565b60405180910390f35b61011e60048036038101906101199190610d64565b6102fc565b60405161012b9190610da0565b60405180910390f35b61014e60048036038101906101499190610e19565b61031b565b005b61016a60048036038101906101659190610e19565b61033d565b005b6101746103b8565b6040516101819190610e72565b60405180910390f35b6101a4600480360381019061019f9190610eb9565b6103be565b005b6101c060048036038101906101bb9190610eb9565b610420565b005b6101dc60048036038101906101d79190610e19565b61052a565b6040516101e99190610d13565b60405180910390f35b6101fa610594565b6040516102079190610da0565b60405180910390f35b61022a60048036038101906102259190610eb9565b61059b565b005b61024660048036038101906102419190610eb9565b610613565b005b610262600480360381019061025d9190610e19565b6107db565b005b61026c6107fd565b6040516102799190610da0565b60405180910390f35b60007f7965db0b000000000000000000000000000000000000000000000000000000007bffffffffffffffffffffffffffffffffffffffffffffffffffffffff1916827bffffffffffffffffffffffffffffffffffffffffffffffffffffffff191614806102f557506102f482610821565b5b9050919050565b6000806000838152602001908152602001600020600101549050919050565b610324826102fc565b61032d8161088b565b610337838361089f565b50505050565b610345610990565b73ffffffffffffffffffffffffffffffffffffffff168173ffffffffffffffffffffffffffffffffffffffff16146103a9576040517f6697b23200000000000000000000000000000000000000000000000000000000815260040160405180910390fd5b6103b38282610998565b505050565b60035481565b7fb19546dff01e856fb3f010c267a7b1c60363cf8a4664e21cc89c26224620214e6103e88161088b565b61041c600260009054906101000a900473ffffffffffffffffffffffffffffffffffffffff16610416610990565b84610a8a565b5050565b6000600354826104309190610f44565b905060006064600260646104449190610f75565b8361044f9190610fa9565b6104599190610f44565b9050600160009054906101000a900473ffffffffffffffffffffffffffffffffffffffff1673ffffffffffffffffffffffffffffffffffffffff166379cc67906104a1610990565b856040518363ffffffff1660e01b81526004016104bf929190610ffa565b600060405180830381600087803b1580156104d957600080fd5b505af11580156104ed573d6000803e3d6000fd5b50505050610525600260009054906101000a900473ffffffffffffffffffffffffffffffffffffffff1661051f610990565b83610a8a565b505050565b600080600084815260200190815260200160002060000160008373ffffffffffffffffffffffffffffffffffffffff1673ffffffffffffffffffffffffffffffffffffffff16815260200190815260200160002060009054906101000a900460ff16905092915050565b6000801b81565b7fb19546dff01e856fb3f010c267a7b1c60363cf8a4664e21cc89c26224620214e6105c58161088b565b60008211610608576040517f08c379a00000000000000000000000000000000000000000000000000000000081526004016105ff906110a6565b60405180910390fd5b816003819055505050565b80600260009054906101000a900473ffffffffffffffffffffffffffffffffffffffff1673ffffffffffffffffffffffffffffffffffffffff1663dd62ed3e61065a610990565b306040518363ffffffff1660e01b81526004016106789291906110c6565b602060405180830381865afa158015610695573d6000803e3d6000fd5b505050506040513d601f19601f820116820180604052508101906106b99190611104565b10156106fa576040517f08c379a00000000000000000000000000000000000000000000000000000000081526004016106f19061117d565b60405180910390fd5b61072f600260009054906101000a900473ffffffffffffffffffffffffffffffffffffffff16610728610990565b3084610b52565b60006003548261073f9190610fa9565b9050600160009054906101000a900473ffffffffffffffffffffffffffffffffffffffff1673ffffffffffffffffffffffffffffffffffffffff166340c10f19610787610990565b836040518363ffffffff1660e01b81526004016107a5929190610ffa565b600060405180830381600087803b1580156107bf57600080fd5b505af11580156107d3573d6000803e3d6000fd5b505050505050565b6107e4826102fc565b6107ed8161088b565b6107f78383610998565b50505050565b7fb19546dff01e856fb3f010c267a7b1c60363cf8a4664e21cc89c26224620214e81565b60007f01ffc9a7000000000000000000000000000000000000000000000000000000007bffffffffffffffffffffffffffffffffffffffffffffffffffffffff1916827bffffffffffffffffffffffffffffffffffffffffffffffffffffffff1916149050919050565b61089c81610897610990565b610c1d565b50565b60006108ab838361052a565b61098557600160008085815260200190815260200160002060000160008473ffffffffffffffffffffffffffffffffffffffff1673ffffffffffffffffffffffffffffffffffffffff16815260200190815260200160002060006101000a81548160ff021916908315150217905550610922610990565b73ffffffffffffffffffffffffffffffffffffffff168273ffffffffffffffffffffffffffffffffffffffff16847f2f8788117e7eff1d82e926ec794901d17c78024a50270940304540a733656f0d60405160405180910390a46001905061098a565b600090505b92915050565b600033905090565b60006109a4838361052a565b15610a7f57600080600085815260200190815260200160002060000160008473ffffffffffffffffffffffffffffffffffffffff1673ffffffffffffffffffffffffffffffffffffffff16815260200190815260200160002060006101000a81548160ff021916908315150217905550610a1c610990565b73ffffffffffffffffffffffffffffffffffffffff168273ffffffffffffffffffffffffffffffffffffffff16847ff6391f5c32d9c69d2a47ea670b442974b53935d1edc7fd64eb21e047a839171b60405160405180910390a460019050610a84565b600090505b92915050565b60008373ffffffffffffffffffffffffffffffffffffffff1663a9059cbb84846040518363ffffffff1660e01b8152600401610ac7929190610ffa565b6020604051808303816000875af1158015610ae6573d6000803e3d6000fd5b505050506040513d601f19601f82011682018060405250810190610b0a91906111c9565b905080610b4c576040517f08c379a0000000000000000000000000000000000000000000000000000000008152600401610b4390611242565b60405180910390fd5b50505050565b60008473ffffffffffffffffffffffffffffffffffffffff166323b872dd8585856040518463ffffffff1660e01b8152600401610b9193929190611262565b6020604051808303816000875af1158015610bb0573d6000803e3d6000fd5b505050506040513d601f19601f82011682018060405250810190610bd491906111c9565b905080610c16576040517f08c379a0000000000000000000000000000000000000000000000000000000008152600401610c0d90611242565b60405180910390fd5b5050505050565b610c27828261052a565b610c6a5780826040517fe2517d3f000000000000000000000000000000000000000000000000000000008152600401610c61929190611299565b60405180910390fd5b5050565b600080fd5b60007fffffffff0000000000000000000000000000000000000000000000000000000082169050919050565b610ca881610c73565b8114610cb357600080fd5b50565b600081359050610cc581610c9f565b92915050565b600060208284031215610ce157610ce0610c6e565b5b6000610cef84828501610cb6565b91505092915050565b60008115159050919050565b610d0d81610cf8565b82525050565b6000602082019050610d286000830184610d04565b92915050565b6000819050919050565b610d4181610d2e565b8114610d4c57600080fd5b50565b600081359050610d5e81610d38565b92915050565b600060208284031215610d7a57610d79610c6e565b5b6000610d8884828501610d4f565b91505092915050565b610d9a81610d2e565b82525050565b6000602082019050610db56000830184610d91565b92915050565b600073ffffffffffffffffffffffffffffffffffffffff82169050919050565b6000610de682610dbb565b9050919050565b610df681610ddb565b8114610e0157600080fd5b50565b600081359050610e1381610ded565b92915050565b60008060408385031215610e3057610e2f610c6e565b5b6000610e3e85828601610d4f565b9250506020610e4f85828601610e04565b9150509250929050565b6000819050919050565b610e6c81610e59565b82525050565b6000602082019050610e876000830184610e63565b92915050565b610e9681610e59565b8114610ea157600080fd5b50565b600081359050610eb381610e8d565b92915050565b600060208284031215610ecf57610ece610c6e565b5b6000610edd84828501610ea4565b91505092915050565b7f4e487b7100000000000000000000000000000000000000000000000000000000600052601260045260246000fd5b7f4e487b7100000000000000000000000000000000000000000000000000000000600052601160045260246000fd5b6000610f4f82610e59565b9150610f5a83610e59565b925082610f6a57610f69610ee6565b5b828204905092915050565b6000610f8082610e59565b9150610f8b83610e59565b9250828203905081811115610fa357610fa2610f15565b5b92915050565b6000610fb482610e59565b9150610fbf83610e59565b9250828202610fcd81610e59565b91508282048414831517610fe457610fe3610f15565b5b5092915050565b610ff481610ddb565b82525050565b600060408201905061100f6000830185610feb565b61101c6020830184610e63565b9392505050565b600082825260208201905092915050565b7f45786368616e676520726174652063616e6e6f74206265206c657373206f722060008201527f657175616c20746f203000000000000000000000000000000000000000000000602082015250565b6000611090602a83611023565b915061109b82611034565b604082019050919050565b600060208201905081810360008301526110bf81611083565b9050919050565b60006040820190506110db6000830185610feb565b6110e86020830184610feb565b9392505050565b6000815190506110fe81610e8d565b92915050565b60006020828403121561111a57611119610c6e565b5b6000611128848285016110ef565b91505092915050565b7f5553444320616c6c6f77616e636520746f6f206c6f7700000000000000000000600082015250565b6000611167601683611023565b915061117282611131565b602082019050919050565b600060208201905081810360008301526111968161115a565b9050919050565b6111a681610cf8565b81146111b157600080fd5b50565b6000815190506111c38161119d565b92915050565b6000602082840312156111df576111de610c6e565b5b60006111ed848285016111b4565b91505092915050565b7f546f6b656e207472616e73666572206661696c65640000000000000000000000600082015250565b600061122c601583611023565b9150611237826111f6565b602082019050919050565b6000602082019050818103600083015261125b8161121f565b9050919050565b60006060820190506112776000830186610feb565b6112846020830185610feb565b6112916040830184610e63565b949350505050565b60006040820190506112ae6000830185610feb565b6112bb6020830184610d91565b939250505056fea26469706673582212201fce676836e4679cd6979e171da0bf2cdc8560ea607293e17d94e65d7b6828dd64736f6c634300081b0033",
  "linkReferences": {},
  "deployedLinkReferences": {}
}